:020000040800F2
:1000000088080020050100080D0100080F01000804
:10001000110100081301000815010008000000008C
:1000200000000000000000000000000017010008B0
:1000300019010008000000001B01000865350008D8
:100040001F0100081F0100081F0100081F01000810
:100050001F0100081F0100081F0100081F01000800
:100060001F0100081F0100081F0100081F010008F0
:100070001F0100081F0100081F0100081F010008E0
:100080001F0100081F0100081F0100081F010008D0
:100090001F0100081F0100081F0100081F010008C0
:1000A0001F0100081F0100081F0100081F010008B0
:1000B000A1360008B1360008C13600081F0100084B
:1000C0001F0100081F0100081F0100081F01000890
:1000D0001F01000899390008053A00083D3A000858
:1000E0001F0100081F0100081F010008DFF810D0E1
:1000F00000F056FB004800472D3E0008AFF300809B
:10010000880800200648804706480047FEE7FEE7CB
:10011000FEE7FEE7FEE7FEE7FEE7FEE7FEE7FEE7B7
:10012000C1350008ED000008202A04DB203A21FA3E
:1001300002F00021704721FA02F3D040C2F1200200
:100140009140084319467047D2B201E000F8012BF4
:10015000491EFBD270470022F6E710B513460A4647
:1001600004461946FFF7F0FF204610BD30B505469E
:100170002A460B4612F8010B13F8014B08B1A042B6
:10018000F8D01CB1002802D06D1CF1E7284630BD24
:10019000421C10F8011B0029FBD1801A704710B5D2
:1001A000002200E0521C835C8C5CA34201D1002B36
:1001B000F8D1D8B2E1B2401A10BD30B505460020E2
:1001C000034600E05B1C934205D2EC5CC85C201A3D
:1001D00001D1002CF6D130BD2DE9FE4F804681EAD9
:1001E0000300C00F0C46009021F0004123F00045B1
:1001F000B8EB0200A94105D24046214690461C4674
:100200000B46024623F00040104347D0270DC7F3AA
:100210000A00C3F30A510290401A019040286BDA99
:10022000C3F3130040F4801B0098924620B10023D2
:10023000D2EB030A63EB0B0B01985946C0F1400265
:10024000504600F059F906460D4650465946019A67
:1002500000F061F910EB08006141002487EA1152B7
:1002600084EAE7731A4340D0009A62B3019A012AE4
:100270004FEA075215DC001B61EB02014FF0004210
:1002800002EA0752CDE90042001C41F580113246D6
:100290002B4600F098F903B0BDE8F08F40462146A8
:1002A000F9E7001B61EB0201001C41F58013001807
:1002B0005B412018A2F5001747EB030140EAD57017
:1002C000B6196D4111E06D084FEA360645EAC07572
:1002D0004FEA0752001B61EB0201001C41F580113F
:1002E00049084FEA30000019514132462B4603B00D
:1002F000BDE8F04F00F058B90098012240000023FB
:10030000D0EB020263EBE073009821464FEAE07401
:10031000B8EB000061EB0401E9E783F000435BE721
:1003200081F0004158E72DE9FE4F81EA030404F013
:10033000004421F0004100944FF0000B23F00043F3
:1003400050EA01045ED052EA03045BD0C3F30A54BE
:10035000C1F30A552C44A4F2F3340194A0FB0254D7
:10036000C1F3130141F48011C3F3130343F4801369
:1003700001FB024400FB034E840A970A44EA8154BD
:1003800047EA8357A4FB076802958D0A05FB07859A
:100390004FEA932C04FB0C542705029D4FEA0658A4
:1003A00047EA1637B5EB08056EEB070C870E920E81
:1003B00047EA811742EA8312A7FB0201B6EB0B0161
:1003C00064EB00042B0D43EA0C335E1844EB1C5025
:1003D000DA465146E7FB0201C5F313044FEA0B333B
:1003E00043EA14534FEA0432019C43EA0603A4F1A2
:1003F0000C040294009CCDE900B400F0E4F803B0D2
:10040000BDE8F08F00200146F9E70EB5C10F80EA84
:10041000E0700844CA07002140F233438DE80E0023
:100420000A460B4600F0CFF803B000BD0EB540F20F
:10043000334102910021CDE900110A460B4600F03C
:10044000C2F803B000BD20F00040C10DC0F316009B
:1004500040F400007F2901DA00207047962903DC70
:10046000C1F19601C840704796398840704700F046
:10047000004230F000400AD0C10D01F56071C0F3B8
:10048000160042EA0151C20840071143704700209C
:100490000146704701F0004330B421F0004150EABA
:1004A000010206D00A0DA2F56072C1F31301002A01
:1004B00002DC30BC00207047440F44EAC104C10094
:1004C000E01830BC00EBC25000F037B830B50B4636
:1004D000014600202022012409E021FA02F59D4274
:1004E00005D303FA02F5491B04FA02F52844151E48
:1004F000A2F10102F1DC30BD202A04DB203A00FA2F
:1005000002F1002070479140C2F1200320FA03F36A
:10051000194390407047202A06DBCB17203A41FA56
:1005200002F043EAE07306E041FA02F3D040C2F180
:10053000200291400843194670470029A8BF704720
:10054000401C490008BF20F00100704710B4B0FA09
:1005500080FC00FA0CF050EA010404BF10BC7047A4
:1005600049B1CCF1200421FA04F411FA0CF118BFBE
:10057000012121430843A3EB0C01CB1D4FEA00618D
:100580004FEA102042BF002010BC704700EBC35060
:1005900010440029A4BF10BC7047401C490008BF8C
:1005A00020F0010010BC704710B5141E73F1000458
:1005B00008DA401C41F1000192185B411A4301D155
:1005C00020F0010010BD2DE9F04D92469B4611B17F
:1005D000B1FA81F202E0B0FA80F220329046FFF7E1
:1005E0008BFF04460F4640EA0A0041EA0B015346DE
:1005F0005A46084313D0114653EA010019D0C8F1F6
:1006000040025046FFF790FD05460E4650465946BB
:100610004246FFF771FF084305D0012004E0204661
:100620003946BDE8F08D0020054346EAE0762C43CC
:1006300037430A986305E40AA0EB08000022FD0A8C
:1006400044EA47540A3002D500200146E9E7010593
:1006500010196941DDE9084500196941BDE8F04D0F
:10066000A2E72DE9F04D81EA030404F0004B21F0EC
:10067000004514464FF0000A23F0004150EA0502FD
:1006800020D054EA01021DD0C5F30A570246C5F333
:100690001303C1F31300C1F30A5640F4801543F469
:1006A0008013A7EB0608101BD64608F2FD3873EB43
:1006B000050002D308F1010801E092185B41B8F18E
:1006C000000F03DA00200146BDE8F08D00204FF452
:1006D0008011064684460EE0171B73EB050705D311
:1006E000121B63EB050306434CEA010C49084FEA71
:1006F000300092185B4150EA0107EDD152EA030045
:1007000012D082EA040083EA0501084305D0101BD9
:10071000AB4106D20122002306E000224FF0004345
:1007200002E06FF0010253101AEB06004CEB085187
:1007300010EB0A0041EB0B01BDE8F04DFFF734BFB1
:1007400070B521F0004303430CD0C1F30A550024D7
:10075000D5EB040564EB0403D617AD1AB34102DBF5
:100760000020014670BD201841EB025170BD000011
:1007700030B5041E71F1000404DB4FF00044404228
:1007800064EB0101141E73F1000405DB1C464FF0FD
:100790000043524263EB0403994208BF904230BDCC
:1007A000064C074D06E0E06840F0010394E80700BE
:1007B00098471034AC42F6D3FFF79CFCA44B0008DA
:1007C000C44B00082DE9F04D00231A461B1A8A413C
:1007D00003DB00200146BDE8F08DC1F30A52C1F3EE
:1007E000130141F480154FF0000BD10702D100181E
:1007F0006D41521E0027044640F2FF11384601EBBE
:10080000620A3E468046024600204FF48011FFF700
:100810008BFCC2197141BB1846EB0100B4EB030C11
:1008200075EB000C04D3E41A65EB000517460E4681
:10083000241908F101006D4180463428E3DDF919DF
:1008400046EB0600091BA84103D24FF0FF321346C6
:1008500001E0002213461BEB070046EB0A51BDE8FE
:10086000F04DFFF7A1BE000030B595B00446072259
:100870004CA1FFF7A2FC002851D12046FFF788FCCD
:10088000217AC0B23039ADF83410617A3039ADF820
:100890003610A17A3039ADF83810E17A3039ADF838
:1008A0003A10217B3039ADF83C10617B3039ADF81E
:1008B0003E10A17B3039ADF84010E17B3039ADF806
:1008C0004210217C3039ADF84410617C3039ADF8EC
:1008D0004610A17C3039ADF84810E17C3039ADF8D4
:1008E0004A10217D3039ADF84C10617D3039ADF8BA
:1008F0004E10A17D3039ADF85010E17D3039ADF8A2
:100900005210182804D02AA003F006F915B030BD03
:1009100000200DAD35F8101019B1012901D030A01B
:10092000F2E7401CC0B21028F4D3002435F81400BC
:10093000A8B30121204602F067FC641CE4B2102C2D
:10094000F4D3BDF84C0009ACBDF85230BDF85020CE
:10095000BDF84E1084E80F00BDF8440005ACBDF8AA
:100960004A30BDF84820BDF8461084E80F00BDF8B5
:100970003C0001ACBDF84230BDF84020BDF83E104F
:1009800084E80F00BDF83A000090BDF83830BDF89B
:100990003620BDF834101FA003F0BEF8B6E7FFE71D
:1009A0000021C7E7414C4C204F55543A000000004D
:1009B000746865206E756D62657220697320696C5C
:1009C0006C6567616C2C706C6561736520656E7415
:1009D000657220616761696E0D0A2A5F2A00000056
:1009E0005468697320636F6D6D616E642069732054
:1009F000696C6C6567616C2C706C656173652063F4
:100A00006865636B20697420616761696E0D0A2AED
:100A10005F2A0000416C6C204F75743A2564256490
:100A2000256425642564256425642564256425647E
:100A3000256425642564256425642564205061733C
:100A4000730D0A2A5F2A00002DE9F04F8FB00F20A6
:100A500002F02AFB05900E2002F026FB81460D20B5
:100A600002F022FB04900C2002F01EFB80460B20BB
:100A700002F01AFB03900A2002F016FB02900920F4
:100A800002F012FB0746082002F00EFB0646072084
:100A900002F00AFB8346062002F006FB8246052090
:100AA00002F002FB0190042002F0FEFA0090032005
:100AB00002F0FAFA0546022002F0F6FA0446012096
:100AC00002F0F2FA0D90002002F0EEFA0146DDE9A4
:100AD0000403CDE90980CDE90B93DDE90223CDE9DB
:100AE0000723CDE90567DDE9003CCDE90053CDF8EA
:100AF00008C0CDE903AB234603A00D9A03F00CF820
:100B00000FB0BDE8F08F0000416C6C20496E3A25B3
:100B1000642564256425642564256425642564258D
:100B20006425642564256425642564256425640D95
:100B30000A2A5F2A0000000070B5214C214E20785F
:100B400040B1002525706078012813D0A0780128D5
:100B500027D070BDE17860688142FAD2705C491C90
:100B6000E170BDE8704002F0CBBF705C491CE170E1
:100B700002F0C6FFE17860688142F6D3082002F0F7
:100B8000BFFF202002F0BCFF082002F0B9FFE07890
:100B9000401EE070657070BD705C491CE17002F031
:100BA000AFFFE17860688142F6D307A002F0B4FF9E
:100BB000E570A570034800F0B7FF656070BD0000E8
:100BC00008000020380100200D0A000070B5012146
:100BD000052002F019FB0021042002F015FB02E0C1
:100BE0000A2001F05BFB062002F05EFA20B1022031
:100BF00002F05AFA0028F3D1062002F055FA2E4DE1
:100C0000022490B1022002F04FFA0028FAD001210C
:100C1000032002F0F9FA0121022002F0F5FA002186
:100C2000012002F0F1FA2C7070BD4FF4FA763046D4
:100C300001F034FB0121092002F0E6FA002108202E
:100C400002F0E2FA02E00A2001F028FB0A2002F09A
:100C50002BFA20B1022002F027FA0028F3D10A2053
:100C600002F022FA28B1022002F01EFA0028FAD07F
:100C7000CDE7304601F012FB0121072002F0C4FA53
:100C80000021062002F0C0FA02E00A2001F006FB73
:100C9000082002F009FA20B1022002F005FA00282B
:100CA000F3D1022002F000FA0028BDD1022002F0A8
:100CB000FBF90028FAD0AAE7EC0000202DE9F0416A
:100CC000052002F0F1F900287CD1032002F0ECF9B4
:100CD0000028F9D1022002F0E7F9002872D00420A0
:100CE00002F0E2F90028EFD1594D28780128EBD124
:100CF00000240121052002F087FA0021042002F0DF
:100D000083FA4FF4967706E00A2001F0C7FA641CD4
:100D1000A4B2BC4214D2062002F0C6F980B102206F
:100D200002F0C2F960B1042002F0BEF940B905201A
:100D300002F0BAF920B9032002F0B6F90028E3D096
:100D4000062002F0B1F9022600285AD13C46384666
:100D500001F0A4FA0121092002F056FA002108202E
:100D600002F052FA002706E00A2001F097FA7F1CF1
:100D7000BFB2A74214D20A2002F096F980B1022035
:100D800002F092F960B1042002F08EF940B905201A
:100D900002F08AF920B9032002F086F90028E3D096
:100DA0000A2002F081F960BB2746204601F076FA5E
:100DB0000121072002F028FA0021062002F024FA7F
:100DC000002407E02AE00A2001F068FA641CA4B2BB
:100DD000BC4216D2082002F067F980B1022002F06E
:100DE00063F960B1042002F05FF940B9052002F018
:100DF0005BF920B9032002F057F90028E3D0BC4288
:100E00000ED30121032002F0FFF90121022002F09C
:100E1000FBF90021012002F0F7F92E700DA012E07D
:100E20000021084602F0F0F90121084602F0ECF931
:100E30000121032002F0E8F90021022002F0E4F988
:100E40000020287008A0BDE8F04102F065BE000057
:100E5000EC000020436170204F6666204661696C9B
:100E60000D0A2A5F2A000000436170204F66662049
:100E7000506173730D0A2A5F2A0000002DE9F041CA
:100E8000052002F011F900287ED10024012105205F
:100E900002F0BAF90021042002F0B6F94FF4967777
:100EA00006E00A2001F0FAF9641CA4B2BC4214D294
:100EB000062002F0F9F880B1022002F0F5F860B1E6
:100EC000042002F0F1F840B9052002F0EDF820B955
:100ED000032002F0E9F80028E3D0062002F0E4F84D
:100EE0000226434D00285BD13C46384601F0D6F936
:100EF0000121092002F088F90021082002F084F97C
:100F0000002706E00A2001F0C9F97F1CBFB2A74202
:100F100014D20A2002F0C8F880B1022002F0C4F80E
:100F200060B1042002F0C0F840B9052002F0BCF81E
:100F300020B9032002F0B8F80028E3D00A2002F01C
:100F4000B3F868BB2746204601F0A8F90121072025
:100F500002F05AF90021062002F056F9002406E0BA
:100F60000A2001F09BF9641CA4B2BC4218D20820EC
:100F700002F09AF890B1022002F096F870B10420C5
:100F800002F092F850B900E030E0052002F08CF851
:100F900020B9032002F088F80028E1D0BC420ED32B
:100FA0000121032002F030F90121022002F02CF986
:100FB0000021012002F028F92E700EA012E000217D
:100FC000084602F021F90121084602F01DF901212D
:100FD000032002F019F90021022002F015F9002087
:100FE000287009A0BDE8F04102F096BDBDE8F0818F
:100FF000EC000020436170204F6666204661696CFA
:101000000D0A2A5F2A000000436170204F666620A7
:10101000506173730D0A2A5F2A00000070B5052025
:1010200002F042F8D0BB032002F03EF8B0BB022031
:1010300002F03AF890B3042002F036F870BB0024B6
:101040000121092002F0E0F80021082002F0DCF87C
:101050004FF4967506E00A2001F020F9641CA4B252
:10106000AC4214D20A2002F01FF880B1022002F034
:101070001BF860B1042002F017F840B9052002F017
:1010800013F820B9032002F00FF80028E3D00A205B
:1010900002F00AF820B105490020087004A000E021
:1010A00009A0BDE8704002F037BD0000EC00002050
:1010B000436170204C656674204F66662046616906
:1010C0006C0D0A2A5F2A0000436170204C6566742B
:1010D000204F666620506173730D0A2A5F2A000054
:1010E00070B5052001F0E0FFD0BB032001F0DCFF6C
:1010F000B0BB022001F0D8FF90B3042001F0D4FF70
:1011000070BB00240121072002F07EF80021062098
:1011100002F07AF84FF4967506E00A2001F0BEF866
:10112000641CA4B2AC4214D2082001F0BDFF80B10F
:10113000022001F0B9FF60B1042001F0B5FF40B911
:10114000052001F0B1FF20B9032001F0ADFF002818
:10115000E3D0082001F0A8FF20B105490020087065
:1011600004A000E009A0BDE8704002F0D5BC00007A
:10117000EC000020436170205269676874204F665C
:1011800066204661696C0D0A2A5F2A00436170205F
:101190005269676874204F666620506173730D0A48
:1011A0002A5F2A0070B5052001F07EFF58B90320A0
:1011B00001F07AFF38B9022001F076FF18B104205F
:1011C00001F072FF08B11BA030E0002401210520CE
:1011D00002F01AF80021042002F016F84FF4967578
:1011E00006E00A2001F05AF8641CA4B2AC4214D202
:1011F000062001F059FF80B1022001F055FF60B1D7
:10120000042001F051FF40B9052001F04DFF20B945
:10121000032001F049FF0028E3D0062001F044FF3D
:101220000A4A002100281170CDD109A0BDE8704004
:1012300002F072BC436170205570204F66662046F4
:1012400061696C0D0A2A5F2A00000000EC00002092
:10125000436170205570204F666620506173730D96
:101260000A2A5F2A000000002DE9F041052001F064
:101270001BFF00287DD1032001F016FF002878D144
:10128000042001F011FF002873D1022001F00CFFAF
:1012900000286ED06E4C207800286AD100250121EC
:1012A000022001F0B1FF0121084601F0ADFF00214D
:1012B000032001F0A9FF0021072001F0A5FF012173
:1012C000062001F0A1FF4FF4967606E00A2000F018
:1012D000E5FF6D1CADB2B54214D2092001F0E4FE69
:1012E00080B1022001F0E0FE60B1042001F0DCFEDC
:1012F00040B9052001F0D8FE20B9032001F0D4FE4A
:101300000028E3D0092001F0CFFE78B101210720A9
:1013100001F07AFF0021062001F076FF0021084647
:1013200001F072FF00206070A0707FE0354630460B
:1013300000F0B4FF0021092001F066FF0121082020
:1013400001F062FF002606E00A2000F0A7FF761CED
:10135000B6B2AE4216D20B2001F0A6FE90B102202A
:1013600001F0A2FE70B1042001F09EFE50B90520EC
:1013700000E06BE001F098FE20B9032001F094FE3C
:101380000028E1D00B2001F08FFE022748B1642035
:1013900000F084FF0121092001F036FF0021082020
:1013A00035E02E46284600F079FF0021052001F0A7
:1013B0002BFF0121042001F027FF002506E00A2071
:1013C00000F06CFF6D1CADB2B5421AD2072001F0DF
:1013D0006BFE80B1022001F067FE60B1042001F0D5
:1013E00063FE40B9052001F05FFE20B9032001F043
:1013F0005BFE0028E3D0B54203D2042001F054FE86
:10140000C8B10121052001F0FFFE0021042001F0F8
:10141000FBFE0121032001F0F7FE0121022001F073
:10142000F3FE0021012001F0EFFE277009A0BDE8C6
:10143000F04102F071BB642000F030FF0121002078
:1014400001F0E2FE0120207007A0F0E7BDE8F08186
:10145000EC000020436170204F6E204661696C0DE6
:101460000A2A5F2A00000000436170204F6E20505E
:101470006173730D0A2A5F2A0000000070B5052011
:1014800001F012FEF0BB032001F00EFED0BB0420E1
:1014900001F00AFEB0BB022001F006FE90B300246A
:1014A0002146092001F0B0FE0121082001F0ACFE28
:1014B0004FF4967506E00A2000F0F0FE641CA4B21A
:1014C000AC4214D20B2001F0EFFD80B1022001F0FC
:1014D000EBFD60B1042001F0E7FD40B9052001F00B
:1014E000E3FD20B9032001F0DFFD0028E3D00B204D
:1014F00001F0DAFD70B10121092001F085FE002123
:10150000082000E004E001F07FFE0549002008709B
:1015100004A000E009A0BDE8704002F0FDBA0000A0
:10152000EC000020436170204C656674204F6E20F3
:101530004661696C0D0A2A5F2A0000004361702031
:101540004C656674204F6E20506173730D0A2A5FDC
:101550002A00000070B5052001F0A6FDF0BB0320B5
:1015600001F0A2FDD0BB042001F09EFDB0BB022023
:1015700001F09AFD90B300242146072001F044FEBB
:101580000121062001F040FE4FF4967506E00A2086
:1015900000F084FE641CA4B2AC4214D2092001F015
:1015A00083FD80B1022001F07FFD60B1042001F0D5
:1015B0007BFD40B9052001F077FD20B9032001F043
:1015C00073FD0028E3D0092001F06EFD70B1012108
:1015D000072001F019FE0021062000E004E001F0E0
:1015E00013FE05490020087004A000E009A0BDE832
:1015F000704002F091BA0000EC00002043617020BE
:101600005269676874204F6E204661696C0D0A2A22
:101610005F2A0000436170205269676874204F6E32
:1016200020506173730D0A2A5F2A000070B50520EF
:1016300001F03AFDF0BB032001F036FDD0BB0420E1
:1016400001F032FDB0BB022001F02EFD90B300246A
:101650002146052001F0D8FD0121042001F0D4FD30
:101660004FF4967506E00A2000F018FE641CA4B240
:10167000AC4214D2072001F017FD80B1022001F026
:1016800013FD60B1042001F00FFD40B9052001F009
:101690000BFD20B9032001F007FD0028E3D007204F
:1016A00001F002FD0B4C68B10121052001F0ACFDF9
:1016B000002100E004E0042001F0A6FD00202070DD
:1016C00005A002E00120207008A0BDE8704002F0F3
:1016D00023BA0000EC000020436170205570204FB9
:1016E0006E204661696C0D0A2A5F2A0043617020F2
:1016F0005570204F6E20506173730D0A2A5F2A00C7
:1017000070B5F84C054601462068FEF748FD90B1DB
:1017100029466068FEF743FD80B12946A068FEF7C0
:101720003EFD70B12846E168FEF720FD60B1284615
:1017300000F0B2FCA6E101F0CBFAA3E101F0C2FE99
:10174000A0E1FFF781F99DE128462169FEF70EFD32
:1017500018B1284600F072FC94E128466169FEF752
:1017600005FD18B1284601F0C1FE8BE12946A069AC
:10177000FEF715FD00287DD02946E069FEF70FFD34
:10178000002878D02946206AFEF709FD002873D08A
:101790002946606AFEF703FD00286ED02946A06A3C
:1017A000FEF7FDFC002869D02946E06AFEF7F7FC49
:1017B00000287DD02946206BFEF7F1FC002878D068
:1017C0002946606BFEF7EBFC002873D02946A06B1E
:1017D000FEF7E5FC00286ED02946E06BFEF7DFFC43
:1017E000002869D02946206CFEF7D9FC00287DD05E
:1017F0002946606CFEF7D3FC002878D02946A06CFF
:10180000FEF7CDFC002873D02946E06CFEF7C7FC3C
:10181000002870D02946206DFEF7C1FC00286CD04E
:101820002946606DFEF7BBFC002868D02946A06DF4
:10183000FEF7B5FC002871D02946E06DFEF7AFFC3D
:1018400000286DD02946206EFEF7A9FC002869D03B
:101850002946606EFEF7A3FC00286ED02946A06ED4
:10186000FEF79DFC00286AD02946E06EFEF797FC43
:10187000002804E058E05AE05CE062E064E06FD0E9
:101880002946206FFEF78BFC98B32946606FFEF760
:1018900086FC78B32946A06FFEF781FC60B3294629
:1018A000E06FFEF77CFC48B38E4C2946803404E0A0
:1018B0004DE04FE051E056E058E02068FEF76FFC45
:1018C00068B329466068FEF76AFC50B32946A068F1
:1018D000FEF765FC38B32946E068FEF760FC68B3A4
:1018E00029462069FEF75BFC50B309E041E043E084
:1018F00045E062E064E045E065E046E066E047E040
:1019000029466069FEF74BFC58B32846A169FEF7EB
:101910002DFC38B32846FEF7A7FFE0E03BE058E097
:101920003CE059E03DE05AE000F034FAAAE000F073
:101930001DFAA7E000F056FAA4E035E052E036E0E8
:1019400053E000F03BFA9DE000F074FA9AE000F0FA
:101950005DFA97E000F096FA94E000F07FFA91E0EB
:1019600028E045E047E000F0B5FA8BE000F09EFA91
:1019700088E000F0D7FA85E000F0C0FA82E000F0DD
:10198000F9FA7FE000F0E2FA7CE000F01BFB79E07E
:1019900000F004FB76E000F03DFB73E000F026FB76
:1019A00070E000F0DFF86DE000F0C8F86AE000F0E9
:1019B00001F967E000F0EAF864E000F023F961E083
:1019C00000F00CF95EE000F045F95BE000F02EF964
:1019D00058E000F067F955E000F050F952E000F0EF
:1019E00089F94FE000F072F94CE000F0ABF949E002
:1019F00000F094F946E02946E069FEF7D0FBC8B351
:101A00002946206AFEF7CBFBA8B32946606AFEF799
:101A1000C6FB88B32946A06AFEF7C1FB68B3294616
:101A2000E06AFEF7BCFB48B32946206BFEF7B7FB24
:101A300080B32946606BFEF7B2FB60B32946A06B0A
:101A4000FEF7ADFB40B32946E06BFEF7A8FB80B381
:101A50002946206CFEF7A3FB60B32946606CFEF7B5
:101A60009EFB40B32946A06CFEF799FB80B3287813
:101A700078B304E008E00AE00FE011E013E01AA0F8
:101A800002F04AF8002070BD01F042FEFAE701F0D2
:101A90001FFEF7E70AE00FE011E001F075FEF1E745
:101AA00001F054FEEEE7FFF7DFFB18E0FFF706F961
:101AB00015E007E009E00DE0FFF74CFD0FE0FFF750
:101AC0000FFB0CE0FFF7DAFC09E0FFF7A7FA06E0EE
:101AD00003E023E0FFF7AAFD01E0FFF763FB01202D
:101AE00070BD0000200000205468697320636F6D92
:101AF0006D616E6420697320696C6C6567616C2C24
:101B0000706C6561736520636865636B2069742020
:101B1000616761696E0D0A2A5F2A000000A0AFE7C5
:101B20000D0A2A5F2A00000010B5044602F05EF993
:101B30002046BDE81040FFF7E3BD000010B50121CD
:101B4000092001F061FBBDE8104001A001F0E4BFF5
:101B50004F75743130204F666620506173730D0AE3
:101B60002A5F2A0010B50021092001F04DFBBDE8D5
:101B7000104001A001F0D0BF4F75743130204F6E7E
:101B800020506173730D0A2A5F2A000010B50121ED
:101B90000A2001F039FBBDE8104001A001F0BCBFF4
:101BA0004F75743131204F666620506173730D0A92
:101BB0002A5F2A0010B500210A2001F025FBBDE8AC
:101BC000104001A001F0A8BF4F75743131204F6E55
:101BD00020506173730D0A2A5F2A000010B501219D
:101BE0000B2001F011FBBDE8104001A001F094BFF3
:101BF0004F75743132204F666620506173730D0A41
:101C00002A5F2A0010B500210B2001F0FDFABDE883
:101C1000104001A001F080BF4F75743132204F6E2B
:101C200020506173730D0A2A5F2A000010B501214C
:101C30000C2001F0E9FABDE8104001A001F06CBFF2
:101C40004F75743133204F666620506173730D0AEF
:101C50002A5F2A0010B500210C2001F0D5FABDE85A
:101C6000104001A001F058BF4F75743133204F6E02
:101C700020506173730D0A2A5F2A000010B50121FC
:101C80000D2001F0C1FABDE8104001A001F044BFF1
:101C90004F75743134204F666620506173730D0A9E
:101CA0002A5F2A0010B500210D2001F0ADFABDE831
:101CB000104001A001F030BF4F75743134204F6ED9
:101CC00020506173730D0A2A5F2A000010B50121AC
:101CD0000E2001F099FABDE8104001A001F01CBFF0
:101CE0004F75743135204F666620506173730D0A4D
:101CF0002A5F2A0010B500210E2001F085FABDE808
:101D0000104001A001F008BF4F75743135204F6EAF
:101D100020506173730D0A2A5F2A000010B501215B
:101D20000F2001F071FABDE8104001A001F0F4BEEF
:101D30004F75743136204F666620506173730D0AFB
:101D40002A5F2A0010B500210F2001F05DFABDE8DE
:101D5000104001A001F0E0BE4F75743136204F6E87
:101D600020506173730D0A2A5F2A000010B501210B
:101D7000002001F049FABDE8104001A001F0CCBEFE
:101D80004F757431204F666620506173730D0A2AB7
:101D90005F2A000010B50021084601F035FABDE8C1
:101DA000104001A001F0B8BE4F757431204F6E2075
:101DB000506173730D0A2A5F2A00000010B50121DB
:101DC000084601F021FABDE8104001A001F0A4BED0
:101DD0004F757432204F666620506173730D0A2A66
:101DE0005F2A000010B50021012001F00DFABDE8C6
:101DF000104001A001F090BE4F757432204F6E204C
:101E0000506173730D0A2A5F2A00000010B501218A
:101E1000022001F0F9F9BDE8104001A001F07CBEFC
:101E20004F757433204F666620506173730D0A2A14
:101E30005F2A000010B50021022001F0E5F9BDE89D
:101E4000104001A001F068BE4F757433204F6E2022
:101E5000506173730D0A2A5F2A00000010B501213A
:101E6000032001F0D1F9BDE8104001A001F054BEFB
:101E70004F757434204F666620506173730D0A2AC3
:101E80005F2A000010B50021032001F0BDF9BDE874
:101E9000104001A001F040BE4F757434204F6E20F9
:101EA000506173730D0A2A5F2A00000010B50121EA
:101EB000042001F0A9F9BDE8104001A001F02CBEFA
:101EC0004F757435204F666620506173730D0A2A72
:101ED0005F2A000010B50021042001F095F9BDE84B
:101EE000104001A001F018BE4F757435204F6E20D0
:101EF000506173730D0A2A5F2A00000010B501219A
:101F0000052001F081F9BDE8104001A001F004BEF8
:101F10004F757436204F666620506173730D0A2A20
:101F20005F2A000010B50021052001F06DF9BDE821
:101F3000104001A001F0F0BD4F757436204F6E20A7
:101F4000506173730D0A2A5F2A00000010B5012149
:101F5000062001F059F9BDE8104001A001F0DCBDF8
:101F60004F757437204F666620506173730D0A2ACF
:101F70005F2A000010B50021062001F045F9BDE8F8
:101F8000104001A001F0C8BD4F757437204F6E207E
:101F9000506173730D0A2A5F2A00000010B50121F9
:101FA000072001F031F9BDE8104001A001F0B4BDF7
:101FB0004F757438204F666620506173730D0A2A7E
:101FC0005F2A000010B50021072001F01DF9BDE8CF
:101FD000104001A001F0A0BD4F757438204F6E2055
:101FE000506173730D0A2A5F2A00000010B50121A9
:101FF000082001F009F9BDE8104001A001F08CBDF6
:102000004F757439204F666620506173730D0A2A2C
:102010005F2A000010B50021082001F0F5F8BDE8A6
:10202000104001A001F078BD4F757439204F6E202B
:10203000506173730D0A2A5F2A00000010B501F089
:1020400035F9FEF700FA84B2601E102809D2E0B21A
:10205000012101F0D9F82146BDE8104003A001F0AC
:102060005BBDBDE810400B4801F056BD43796C697B
:102070006E646572206F6666203A2043796C696EE3
:1020800064657220256420506173730D0A2A5F2AEB
:10209000000000003849000810B501F007F9FEF70C
:1020A000D2F984B2601E102809D2E0B2002101F0FA
:1020B000ABF82146BDE8104003A001F02DBDBDE8FE
:1020C00010400A4801F028BD43796C696E6465725E
:1020D000206F6E203A2043796C696E64657220250A
:1020E0006420506173730D0A2A5F2A003849000882
:1020F0002DE9FF476248816941F00901816161482A
:10210000416821F0200141605F484168426822F047
:10211000E06242F0007211434160012001900290A0
:102120000320039041F6F310584D0090694628466D
:1021300000F0C2F84FF20700554E00906946304655
:1021400000F0BAF84FF47E70DFF8489100906946CD
:10215000484600F0B1F801221146284600F093F9F4
:1021600001220221284600F08EF901221021284682
:1021700000F089F901222021284600F084F901228B
:102180004021284600F07FF901228021284600F0F6
:102190007AF901221146304600F075F90122022138
:1021A000304600F070F901220421304600F06BF94E
:1021B000012217033946304600F065F90122510328
:1021C000304600F060F901229103304600F05BF9DF
:1021D0000122D4032146304600F055F9012208219E
:1021E000484600F050F901221021484600F04BF912
:1021F00001222021484600F046F94FF48078012260
:102200004146484600F03FF901224021484600F08F
:102210003AF901228021484600F035F90022414672
:10222000284600F030F90022A111484600F02BF9B1
:1022300000223946284600F026F9002221112846BE
:1022400000F021F90020CDE900406946284600F061
:1022500033F84FF44E7000906946304600F02CF889
:102260004FF6074000906946484600F025F80420E4
:1022700000906946084800F01FF8BDE8FF8700009D
:1022800000100240002004E000000140000801406E
:10229000000C0140001001400014014031B500F075
:1022A000F7F8009C0546601C00D0641C00F0F0F8B4
:1022B000401BA042FAD338BD2DE9F84FDFF890A1BA
:1022C00000220AF1040B144601274FF00F090BF10D
:1022D000040E00BF0B6807FA04F52B40AB4274D123
:1022E000DFF870C14E68A6EB0C0866452BD00DDCFC
:1022F000032E34D005DC36B3012E19D0022E2FD197
:102300001BE0112E16D0122E2AD119E0B8F5881F25
:1023100019D006DCB8F5803F15D0B8F5801F1FD165
:1023200011E0B8F5001F0ED0B8F5041F18D10AE06F
:10233000CA6815E0CA68121D12E0CA6808320FE0C8
:10234000CA680C320CE08A682AB1012A4FF00802F0
:1023500003D0456104E0042202E0056100E00022B0
:10236000FF2B01D8064601E000F104064FEA840580
:1023700001D9A5F12005D6F800C009FA05F82CEA24
:10238000080C02FA05F54CEA050CC6F800C04D68C9
:10239000ED0057D5304DAE6946F00106AE61AD692E
:1023A00024F0030605F0010500952C4D06EB050C05
:1023B000DCF80850A6074FEA167809FA08F6B54384
:1023C000274EB04202D1002610E03BE0254EB0423D
:1023D00001D101260AE0244EB04201D1022605E0D7
:1023E000224EB04201D1032600E0042606FA08F688
:1023F0002E43CCF808604D68DAF80060ED035546CE
:1024000001D51E4300E09E432E604D68DBF800605E
:10241000AD035D4601D51E4300E09E432E604D682E
:10242000DEF80060ED02754601D51E4300E09E43D4
:102430002E604D68AD020E4D2E6801D51E4300E0A2
:102440009E432E60641C102CFFF444AFBDE8F88F4F
:102450000004014000001110001002400000014083
:1024600000080140000C0140001001400014014030
:102470000C0401408068084000D001207047C26809
:102480004A40C26070470AB1016170470904FBE726
:1024900001480068704700000000002070B504008B
:1024A00004D094F83D00002510B106E0012070BD75
:1024B00084F83C50204600F075F8242084F83D0054
:1024C0002068016821F00101016000F085F93349BD
:1024D0002268B0FBF1F15160314A6368934206D93A
:1024E0004FF4967359434FF47A73B1FBF3F12368B9
:1024F000491C1962616891420BD84900B0FBF1F2A6
:10250000C2F30B02042A01D2042019E0B0FBF1F05F
:1025100016E0A3689BB301EBC10202EB0112B0FB12
:10252000F2F242F48042120530D04BB301EBC1020B
:1025300002EB0111B0FBF1F040F4804040F40040A8
:102540002168C861D4E90701084321680860D4E91B
:102550000310084321688860D4E905010843216815
:10256000C8602068016841F00101016025642020F5
:1025700084F83D00256384F83E50002070BD00E0E3
:1025800006E001EB4102B0FBF2F2CCE70120D7E715
:1025900001EB4101B0FBF1F0D0E7000040420F0039
:1025A000A08601007047000002480168491C0160D4
:1025B0007047000000000020074810B5016841F096
:1025C00010010160032000F04BF80F2000F006F826
:1025D00000F018F8002010BD0020024010B504469D
:1025E00007484FF47A710068B0FBF1F000F0CCFAC4
:1025F00000222146501E00F013F8002010BD0000FC
:10260000040000207047002809DB00F01F020121B0
:1026100091404009800000F1E020C0F800117047AF
:10262000F0B40E4B1B680C46C3F30223C3F107053D
:10263000042D00D90425191D072901D2002300E02B
:10264000DB1E012606FA05F1491E214099409E40F5
:10265000761E16403143F0BC01F082BA0CED00E06A
:10266000064900F0070208684FF6FF03184040EAE9
:102670000220034A10430860704700000CED00E0A0
:102680000000FA052DE9F047DFF83C8105460E46CB
:10269000D8F8000000F00700B0420CD2D8F80010C3
:1026A00021F007013143C8F80010D8F8000000F00D
:1026B0000700B04263D12878444C800705D5606894
:1026C000A96820F0F000084360602878C00745D072
:1026D0006868012816D02168022816D089070029C9
:1026E0004DDA616821F0030101436160FFF7D0FE1C
:1026F0006968074641F2883001290FD002298146D6
:1027000019D027E021688903E9E78901E7E700BFDD
:10271000FFF7BEFEC11B494501D918E0814660683C
:10272000C0F381000128F3D118E000BFFFF7B0FE2D
:10273000C11B49450BD86068C0F381000228F5D160
:102740000CE000BFFFF7A4FEC11B494502D90320DE
:10275000BDE8F087606810F00C0FF3D1D8F80010D6
:10276000404601F00701B1420BD9016821F0070191
:1027700031430160006800F00700B04201D0012041
:10278000E6E72878400705D56068E96820F4E0604E
:10279000084360602878000706D56068296920F43E
:1027A000605040EAC100606000F036F86168084A95
:1027B000C1F30311515CC840064908600F20FFF7C0
:1027C0000DFF0020C4E7000000200240001002407E
:1027D0008C48000804000020044805490068496846
:1027E000044AC1F30221515CC84070470400002034
:1027F000001002409C4800080448054900684968E8
:10280000044AC1F3C221515CC84070470400002053
:10281000001002409C48000810B512A385B00FCBF1
:102820008DE80F0013A0144B006804905A681348F9
:1028300002F00C0104290FD008290DD1C2F3834402
:10284000D2031DF8041009D55A6804ABC2F3404204
:102850009A5CB0FBF2F0484305B010BD084848430D
:10286000FAE7000002030405060708090A0B0C0D2D
:102870000E0F1010010200000010024000127A003A
:1028800000093D002DE9F84F04460078B94DC00716
:1028900048D06868C0F38100012807D06868C0F399
:1028A0008100022809D16868C00306D52868800322
:1028B00038D5606800286FD034E06068B0F5803F9C
:1028C0000BD010B1B0F5A02F11D0286820F48030C3
:1028D0002860286820F4802002E0286840F48030D6
:1028E0002860606888B1FFF7D3FD064609E02868D4
:1028F00040F480202860F0E7FFF7CAFD801B6428C1
:1029000075D828688003F7D50CE0FFF7C1FD0646AF
:1029100005E000BFFFF7BCFD801B6428F0D82868E5
:102920008003F7D42078944E80074FF001094FF0D0
:1029300000083BD5686810F00C0F07D06868C0F33A
:102940008100022809D16868C00306D4286880077E
:1029500014D5206901281FD110E02069B0B1C6F854
:102960000090FFF795FD074605E000BFFFF790FDDB
:10297000C01B0228C4D828688007F7D52868616979
:1029800020F0F80040EAC10028600FE0C6F800809F
:10299000FFF77EFD074606E0E9E000BFFFF778FDA0
:1029A000C01B022823D828688007F7D420780007A6
:1029B0002CD57248A169D9B1C0F80090FFF768FD25
:1029C000074604E0FFF764FDC01B02280FD8686AC1
:1029D0008007F7D56A484FF4FA510068B0FBF1F070
:1029E000009000BF0098411E0091FAD20EE080E0F6
:1029F000C0F80080FFF74CFD074604E0FFF748FDF4
:102A0000C01B022875D8686A8007F7D42078400771
:102A100060D5E8690027C00008D4E86940F080501C
:102A2000E861E869012700F080500090554801688E
:102A3000C90513D40168834641F480710160FFF732
:102A400027FD824606E000BFFFF722FDA0EB0A004B
:102A500064284ED8DBF80000C005F5D5E0680128F1
:102A60000AD008B1052813D0286A20F00100286296
:102A7000286A20F0040002E0286A40F00100286281
:102A8000E06841F2883B98B1FFF702FD82460BE017
:102A9000286A40F004002862EEE700BFFFF7F8FC68
:102AA000A0EB0A0159455AD8286A8007F6D50CE0F0
:102AB000FFF7EEFC824605E0FFF7EAFCA0EB0A0117
:102AC00059454CD8286A8007F6D41FB1E86920F030
:102AD0008050E861E06988B36968C1F38101022927
:102AE00045D00228C6F8608004D0FFF7D1FC044628
:102AF00038E034E0FFF7CCFC074604E0FFF7C8FC01
:102B0000C01B02282BD828688001F7D4206AB0F5B2
:102B1000803F05D16868A16820F4003008436860F0
:102B2000D4E908010843696821F474110843686016
:102B3000C6F86090FFF7ACFC044606E015E000BF65
:102B4000FFF7A6FC001B022809D828688001F7D5EA
:102B50000BE000BFFFF79CFC001B022802D90320FA
:102B6000BDE8F88F28688001F4D40020F8E7012040
:102B7000F6E700000010024000004242800442429A
:102B8000040000200070004010B5401EB0F1807FAE
:102B900001D3012010BD4FF0E02460610F216017C8
:102BA00000F0DEFF0020A06107202061002010BDA2
:102BB00070B5040004D094F83900002510B106E087
:102BC000012070BD84F83850204600F022F82420FF
:102BD00084F839002068C16821F40051C1602046A2
:102BE00000F0F0FD2068016921F490410161206846
:102BF000416921F02A0141612068C16841F4005116
:102C0000C160E563202084F8390084F83A00002090
:102C100070BD70472DE9F843044690F839001F460F
:102C200016460D46202850D1A5B19EB194F8380023
:102C300001284AD0012084F838004FF00008C4F879
:102C40003C80212084F83900FFF722FCA6848146CD
:102C5000E68426E00120BDE8F883E08C401EE08495
:102C6000A0684B46B0F5805F4FF000024FF0800146
:102C70002046009703D000F05DFEE8B90DE000F0BB
:102C800059FEC8B928882168C0F308004860206947
:102C900008B16D1C05E0AD1C03E0216815F8010BBF
:102CA0004860E08C0028D8D14B46002240212046C5
:102CB000009700F03FFE08B10320CCE7202084F805
:102CC000390084F838800020C5E70220C3E70000FF
:102CD00010B52FA000F020FF33A000F01DFF36A09C
:102CE00000F01AFF38A000F017FF3EA000F014FF1C
:102CF00043A000F011FF47A000F00EFF4BA000F032
:102D00000BFF51A000F008FF53A000F005FF5DA0ED
:102D100000F002FF60A000F0FFFE64A000F0FCFEE7
:102D200067A000F0F9FE6BA000F0F6FE6EA000F0C8
:102D3000F3FE72A000F0F0FE75A000F0EDFE7AA0A8
:102D400000F0EAFE7DA000F0E7FE82A000F0E4FEC5
:102D500085A000F0E1FE8AA000F0DEFE8DA000F06C
:102D6000DBFE92A000F0D8FE96A000F0D5FE9BA05E
:102D700000F0D2FE9FA000F0CFFEA4A000F0CCFE99
:102D8000A7A000F0C9FEBDE81040ABA000F0C4BE93
:102D9000546865204C697374204F6620436F6D6DD5
:102DA000616E643A0D0A000020202020313A486507
:102DB0006C700D0A0000000020202020323A52657D
:102DC0007365740D0A00000020202020333A4379F7
:102DD0006C696E646572204F6E28312D3136290D75
:102DE0000A00000020202020343A43796C696E6488
:102DF0006572204F666628312D3136290D0A000094
:102E000020202020353A496E28312D3136290D0AEF
:102E10000000000020202020363A4F757458204FC3
:102E20006E28583D317E3136290D0A0020202020A1
:102E3000373A4F757458204F666628583D317E31B9
:102E400036290D0A0000000020202020383A416C6D
:102E50006C20496E0D0A000020202020393A416C78
:102E60006C204F75743A5828583D3136B8F630BB4F
:102E7000F2312C30CAC74F6EA3AC31CAC74F666659
:102E8000290D0A002020202031303A54494D3120AC
:102E90004F4E0D0A000000002020202031313A540E
:102EA000494D31204F46460D0A00000020202020C9
:102EB00031323A54494D32204F4E0D0A0000000085
:102EC0002020202031333A54494D32204F46460DC0
:102ED0000A000000202020203130303A4361702069
:102EE0004F6E0D0A00000000202020203130313AC2
:102EF000436170204F66660D0A00000020202020EC
:102F00003130323A52656C617931204F6E0D0A00D2
:102F1000202020203130333A52656C617931204FC6
:102F200066660D0A00000000202020203130343A6F
:102F300052656C617932204F6E0D0A0020202020EE
:102F40003130353A52656C617932204F66660D0A30
:102F500000000000202020203130363A52656C619C
:102F60007933204F6E0D0A00202020203130373A6F
:102F700052656C617933204F66660D0A00000000CF
:102F8000202020203130383A52656C617934204F4E
:102F90006E0D0A00202020203130393A52656C61D4
:102FA0007934204F66660D0A0000000020202020A2
:102FB0003131303A436170205269676874204F6E36
:102FC0000D0A0000202020203131313A4361702069
:102FD0005269676874204F66660D0A002020202021
:102FE0003131323A436170204C656674204F6E0D6A
:102FF0000A000000202020203131333A4361702044
:103000004C656674204F66660D0A00002020202063
:103010003131343A436170205570204F6E0D0A00F3
:10302000202020203131353A436170205570204FE7
:1030300066660D0A000000002A5F2A0010B51649D6
:10304000044686B0C86940F40010C861C869694682
:1030500000F400100490C020009012200190012084
:103060000290032003900D48FFF726F90D490C4804
:1030700040F20F32C1E900040020C1E902024FF41E
:103080008042C1E90420FF22C1E906200862084607
:10309000FFF704FA06B010BD00100240000C01401A
:1030A000005400400002002030B41E4B1E4C4FF470
:1030B0000041102833D2DFE800F0080A0D10131683
:1030C000181B1E0B202326282B2E042100E0012193
:1030D000184621E04FF48041FAE74FF4007100E018
:1030E0002021204618E00821FBE74FF48051EFE74C
:1030F0004FF48061ECE70221EAE74FF40051E7E783
:103100004FF48071EDE71021EBE70421074803E05D
:103110004FF40061DCE7064830BCFFF7ABB930BCC8
:103120007047000000100140000C014000140140F5
:103130000008014010B500F06BF90020FFF7B4FF64
:10314000F0B90120FFF7B0FFD0B90520FFF7ACFFC1
:10315000B0B90320FFF7A8FF90B90620FFF7A4FF3E
:1031600070B90820FFF7A0FF50B90A20FFF79CFFB5
:1031700030B90420FFF798FF10B92248007820B337
:103180000220FFF791FF00283AD10520FFF78CFFBE
:10319000002835D10320FFF787FF002830D1042015
:1031A000FFF782FF00282BD10A20FFF777F80220D3
:1031B000FFF77AFF002823D10220FFF775FF0028D0
:1031C000FAD0BDE81040FDF759BE0A20FFF766F8B7
:1031D0000020FFF769FF002812D10120FFF764FFEC
:1031E00000280DD10020FFF75FFF0028FAD0012052
:1031F000FFF75AFF0028F5D0BDE81040FEF734B8BD
:1032000010BD0000EC00002030B40246244C254BD9
:103210002548102A41D2DFE802F0080B0E121519DA
:103220001C2024272A2D3033363A0A4608210BE089
:103230000A46022101E00A46202118462AE00A46F1
:103240008021FAE70A462021204623E00A4602218F
:1032500020E00A464FF480511CE00A464FF48041BA
:1032600018E00A460121E8E70A461021E5E70A4688
:103270004021E2E70A461021E6E70A46012109E07B
:103280000A46042106E00A464FF4005102E00A46CD
:103290004FF4004130BCFFF7F6B830BC7047000077
:1032A0000010014000080140000C01402DE9F04FE2
:1032B000002685B004463546B04637461421684698
:1032C000FCF749FF402105E06D1CEDB204F8011B3D
:1032D000322D07D220782D2804D02E2802D0303865
:1032E0000A28F1D20025E94608E02E2800D12F4611
:1032F00009F805006D1CEDB204F8011B20782D289B
:1033000005D02E2803D0A0F13002092A01D80A2DB9
:10331000EBD327B13C46281B401EC7B201E02C4628
:10332000002700259CB39DF800002D2804D101251D
:10333000641EE4B2A84628E019F80500641E30387F
:10334000E4B2092821D82046FDF770F802460B4662
:1033500000202C4900F088FD824619F805006D1CFC
:103360008B46EDB23038FDF750F852465B46FCF71D
:10337000DAFF82468B463046FDF779F852465B46C7
:10338000FCF72AFFFDF786F80646002CD4D16D1C09
:10339000ECB23819C7B2012529E000BF19F80400C2
:1033A0003038092823D82846FDF740F80B46024656
:1033B0001548164900F058FD824619F804008B465E
:1033C0003038FDF722F852465B46FCF7ACFF8246E8
:1033D0008B463046FDF74BF852465B46FCF7FCFE49
:1033E000FDF758F8641C6D1C0646E4B2EDB2BC4211
:1033F000D4D3B8F1010F01D186F0004605B03046B4
:10340000BDE8F08F000024409A9999999999B93FA5
:1034100070B50520FFF748FE0025294C012638B974
:103420000320FFF741FE18B9607808B9207820B171
:103430000520FFF739FE58B113E001210846FFF7D8
:10344000E3FE01210320FFF7DFFE0021022017E049
:103450000320FFF729FE20B9607810B920780128F1
:1034600004D00520FFF720FEA0B90EE001210220C4
:10347000FFF7CAFE01210846FFF7C6FE0021032020
:10348000FFF7C2FE6670A57070BD0320FFF70CFE4B
:103490000028F9D0A0780028F6D120780228F3D0AF
:1034A00001210220FFF7B0FE01210320FFF7ACFE4F
:1034B00000210120FFF7A8FEA670657070BD000016
:1034C000EC0000203220FEF7E9FEBFF34F8F0548E5
:1034D0000168054A01F4E06111430160BFF34F8FB9
:1034E00000BFFDE70CED00E00400FA0510B5FFF7A2
:1034F000DDFEFCF7A8FF84B2601E102809D2E0B2FE
:10350000FFF7D2FD21460246BDE8104003A000F0BF
:1035100003BBBDE8104005A000F0FEBA494E25648B
:103520003A25640D0A2A5F2A0000000074686520AD
:103530006E756D62657220697320696C6C65676178
:103540006C2C706C6561736520656E7465722061AA
:103550006761696E28494E317E494E3136290D0A20
:103560002A5F2A00FFF720B830B58FB014210AA8CF
:10357000FCF7F1FD28216846FCF7EDFD01200090E5
:1035800000040024CDE901040225CDE907504FF4E1
:10359000E01009906846FFF775F900B1FEE70F20CB
:1035A0000A90CDE90B544FF48060CDE90D0402215F
:1035B0000AA8FFF767F8002800D0FEE70FB030BD7B
:1035C0000D48016841F00101016041680B4A11405A
:1035D000416001680A4A11400160016821F48021BC
:1035E0000160416821F4FE0141604FF41F018160D8
:1035F0000449C00308607047001002400000FFF853
:10360000FFFFF6FE08ED00E008B5FEF7D5FFFFF777
:10361000ABFF1B48816941F004018161816901F0C0
:1036200004010091816941F008018161816901F023
:1036300008010091816941F010018161816901F007
:1036400010010091816941F020018161806900F0E1
:103650002000009000F00EFAFEF74AFD0948FFF73F
:10366000EDFCC820FEF71AFE00210846FFF7CCFD4E
:10367000FDF7ACFABDE8084003A000F04DBA000029
:1036800000100240A086010053797374656D2052CA
:103690006573657420506173730D0A2A5F2A0000F8
:1036A00002496FF00100096808617047C4030020F7
:1036B00002496FF0010009680861704704040020A6
:1036C00002496FF001000968086170474404002056
:1036D00010B500224FF400710648FEF7D4FE002218
:1036E0004FF400610448FEF7CEFEBDE8104003A091
:1036F00000F012BA001001400008014054494D3159
:10370000204F464620506173730D0A2A5F2A00003D
:1037100010B5012251020648FEF7B5FE0122D10282
:103720000448FEF7B0FEBDE8104003A000F0F4B975
:10373000001001400008014054494D31204F4E20F7
:10374000506173730D0A2A5F2A00000010B5084CFF
:1037500000224FF480712046FEF795FE0022A1144E
:103760002046FEF790FEBDE8104002A000F0D4B95C
:103770000008014054494D32204F464620506173A5
:10378000730D0A2A5F2A000010B5084C01221102AD
:103790002046FEF778FE012211032046FEF773FE55
:1037A000BDE8104002A000F0B7B9000000080140D9
:1037B00054494D32204F4E20506173730D0A2A5FD9
:1037C0002A0000002DE9F041044600680169E26822
:1037D00021F44051114301612169A06808436169E6
:1037E00008432168CA6841F20C639A430243CA60E5
:1037F00020684169A26921F44071114341614C493B
:1038000020686425322688423CD1FEF7F5FF00EBA4
:10381000C00101EB001061688900B0FBF1F7FEF711
:10382000EBFF00EBC00101EB00106168B0468900BE
:10383000B0FBF1F0B0FBF5F06FF01801484307EB77
:10384000800106EB0110B0FBF5F000F0F006FEF78A
:10385000D3FF00EBC00101EB001061688900B0FBF1
:10386000F1F0B0FBF5F006EB0016FEF7C5FF00EB3C
:10387000C00101EB001061688900B0FBF1F7FEF7B1
:10388000BBFF3BE0FEF7A8FF00EBC00101EB00101F
:1038900061688900B0FBF1F7FEF79EFF00EBC00105
:1038A00001EB00106168B0468900B0FBF1F0B0FB9D
:1038B000F5F06FF01801484307EB800106EB0110AB
:1038C000B0FBF5F000F0F006FEF786FF00EBC0015C
:1038D00001EB001061688900B0FBF1F0B0FBF5F07E
:1038E00006EB0016FEF778FF00EBC00101EB0010BD
:1038F00061688900B0FBF1F7FEF76EFF00EBC001D5
:1039000001EB001061688900B0FBF1F0B0FBF5F04D
:103910006FF01801484307EB800108EB0110B0FB82
:10392000F5F0216800F00F0030448860BDE8F081B8
:10393000003801402DE9F041984617460E460446EE
:10394000069D1DE0681C1BD02DB1FEF7A1FDA0EB6C
:103950000800A84214D92068C16821F4D071C16060
:103960002068416921F001014161202084F839007B
:1039700084F83A00002084F838000320BDE8F08184
:103980002068006836EA000004D00020B842D9D090
:103990000020F3E70120F9E7164810B500684068F9
:1039A0000123C1B21448082942680DD0114C40349B
:1039B0000D290DD00A2906D0262904D023290CD0A0
:1039C000A154521C426010BD521E4260437002E07E
:1039D0000021A1548370037010BDBFF34F8F0748BF
:1039E0000168074A01F4E06111430160BFF34F8FA2
:1039F00000BFFDE7F8000020080000200CED00E00B
:103A00000400FA050B4800680168C94389060AD416
:103A10004068084AC3B2084880320D2B41685354AD
:103A200002D0491C416070470123037000235354A6
:103A30004360704754020020100000200B480068CB
:103A40000168C94389060AD44068084AC3B20848D5
:103A5000B8320D2B8168535402D0491C81607047E5
:103A60000123437000235354836070479402002065
:103A70001000002030B51E4885B0816941F48041B6
:103A8000816180691B4D00F4804004904FF4007008
:103A900000900220019001200290032003906946CB
:103AA0002846FEF709FC28150024CDE900046946E4
:103AB0002846FEF701FC012200212520FEF7B0FD7B
:103AC0002520FEF7A0FD0D480B494FF4E13280E8B8
:103AD0001600C4600C220461C0E90524C86840F0E7
:103AE0002000C8600548FFF763F805B030BD00004E
:103AF000001002400008014000380140F80000209A
:103B000001B54FF4FA73012269460248FFF782F8C3
:103B100008BD0000F80000200FB4054B10B503A944
:103B2000044A029800F0B8F810BC5DF814FB0000DD
:103B3000153E0008F0000020490050EAC12018BFDF
:103B400004204A0D18BF40F0010040F2FF72B2EBB2
:103B5000515F08BF40F00200012808BF05207047F0
:103B60000907090E002804DB00F1E02080F80014AA
:103B7000704700F00F0000F1E02080F8141D70473E
:103B80002DE9F0414F1E00EBC7010446D1E90001C9
:103B900015461E4637F006020DD02A463346FCF77E
:103BA000C2FB7F1E04EBC703D3E90023FCF714FB21
:103BB00037F00602F1D1022F25D0042F13D0062FA3
:103BC00018BFBDE8F0812A463346FCF7ACFBD4E9C8
:103BD0000A23FCF701FB2A463346FCF7A4FBD4E991
:103BE0000823FCF7F9FA2A463346FCF79CFBD4E994
:103BF0000623FCF7F1FA2A463346FCF794FBD4E996
:103C00000423FCF7E9FA2A463346FCF78CFBD4E997
:103C10000223FCF7E1FA2A463346FCF784FBD4E999
:103C20000023BDE8F041FCF7D7BA0000002213469C
:103C300010460149FCF715BD0000F03FFCF7CCBA77
:103C40000022134610461146FCF70BBD40F201322C
:103C500000204FF0E041FCF773BD0000024A002055
:103C60001107FCF76DBD000001FDFFFF02E008C871
:103C7000121F08C1002AFAD170477047002001E0E6
:103C800001C1121F002AFBD17047000001490860E2
:103C900070470000F40000202DE9FF4F89B09B46DB
:103CA0000446002506E025280BD05A460B9990477C
:103CB000641C6D1C20780028F5D10DB02846BDE8A5
:103CC000F08F0027B8460122474900E0074314F867
:103CD000013F203B02FA03F00842F7D120782E285A
:103CE00019D114F8010F47F004072A280ED06FF0FD
:103CF0002F022078A0F1300109290CD808EB8801A7
:103D000002EB410100EB0108641CF2E70A98641C15
:103D100050F8048B0A9020780028CED0642808D070
:103D2000692806D075281ED05A460B9990476D1CFD
:103D300058E00A994FF00A0901C90A91002802DAED
:103D400040422D2102E0390504D52B218DF82010A9
:103D5000012103E0F90704D02021F7E78A4608AEE5
:103D60000DE00021FAE70A994FF00A0901C90A910A
:103D7000F7E74946FCF7AAFB303106F8011D002899
:103D8000F7D1ADEB060000F12009780701D44FF020
:103D90000108C84502DDA8EB090000E000208046CC
:103DA000002706E008A85A46C05D0B9990476D1C95
:103DB0007F1C5745F6DB04E030205A460B999047AC
:103DC0006D1CB8F10001A8F10108F5DC05E016F85A
:103DD000010B5A460B9990476D1CB9F10001A9F1EE
:103DE0000109F4DC641C65E70928010070B505468B
:103DF0000024FCF7CDF9C2B208E0295DA1F1610011
:103E0000192801D820392955641CE4B29442F4D30E
:103E100070BD000013B54FF6FF73012269460248DA
:103E2000FEF7F8FE00981CBDF8000020FFF7ECFB41
:103E30000B4C4FF480750B4EFEF72AFB216801F501
:103E4000FA71884206D9FEF723FB206029463046E6
:103E5000FEF715FBFFF76EF9FCF76EFEECE70000CE
:103E60001C000020001001402DE9F04D1D460C46BD
:103E700098B0174621F0004123F00043002814BFFA
:103E80004FF0010C4FF0000C0CEB440CFE4A0CEB15
:103E900002064FEA620C66452BD33E0018BF01268E
:103EA00006EB45061644F94A964222D3F84A53EAED
:103EB000070C02D0944205D148B918B00020114631
:103EC000BDE8F08D002808BF4FF0000C01D04FF086
:103ED000010C0CEB440212F5001F0AD8002F14BF8E
:103EE0004FF0010C4FF0000C0CEB450212F5001FD7
:103EF00007D918B03A462B462146BDE8F04DFFF7EA
:103F00009DBE0022DFF88CA3002CB8BF534526DAF3
:103F1000DFF884C36345A8BF022220DADFF870C34C
:103F20009C451CDCDFF874C30CEB235CBCF1140F64
:103F300008DDCCF1340627FA06FC0CFA06F6BE4280
:103F40000DD108E05FB9CCF1140623FA06FC0CFA97
:103F500006F69E4203D10CF00102C2F1020251EAC0
:103F6000000C19D1002D17DA002C18BF022A01D03D
:103F7000012A07D00220FFF789FE18B0BDE8F04DF6
:103F8000FFF754BE0220FFF781FEFFF74FFE18B087
:103F900081F00041BDE8F08DB7F1000C6CD15345C4
:103FA00025D104F1804212F5801201BF00280020C3
:103FB000B74918B008BFBDE8F08DB548884207DCA6
:103FC000002DA1BF6046294618B0BDE8F08D07E07E
:103FD000281E05DA80F0004118B06046BDE8F08D7B
:103FE000AF497944D1E9000118B0BDE8F08DDFF8A0
:103FF000A0C2634525D1002D1FDA19B1514512D158
:10400000D8B909E0002840F0EC82A24A214618B055
:1040100062F31E01BDE8F08D0020214618B060F368
:104020001E01BDE8F08D08DA18B02346BDE8F04D5A
:10403000024600206146FCF714BB18B02146BDE8DB
:10404000F08D514518DAB5F1804F0DD0A5F1005C27
:10405000BCF1FF5C10D1B4F1000C0DDB18B061466F
:10406000BDE8F04D00F0ECBB234618B00246BDE8B9
:10407000F04D1946FCF757B9060024F0004C3BD12F
:10408000D9B1514533D1002C06DD002DA1BF002050
:10409000514618B0BDE8F08D002C01DD002D1BDB72
:1040A000002C13DA002D11DB012A4FF0000014BFA1
:1040B00078497C4918B0BDE8F08D022A18BF002C61
:1040C0000AD0012A08D1002C06DA0AE0002CB8BF79
:1040D000002D11DA012A04D0002018B00146BDE8F5
:1040E000F08D18B000204FF00041BDE8F08DA1F137
:1040F0004050B0F17F601AD0012000EBE47050EA2C
:10410000020421D0624C521E4FF0000B104304BF3A
:104110004FF0000B644C654883427CDD644A65487F
:1041200093421FDD884217DB002D25DB37E0002C92
:1041300000DA4AB1022A0CBF01204FF0FF3018B05C
:10414000BDE8F04DFCF761B90120FFF79FFD18B005
:10415000BDE8F04DFFF774BD4D4A8A4202DC002DE8
:104160000ADC1CE0814202DA002D18DA04E0484B38
:10417000994220DD002D12DD0220FFF787FDFFF7B9
:1041800065FD05460E460022534658462146FCF77B
:10419000CAF818B066F31E012846BDE8F08D02206B
:1041A000FFF774FDFFF75AFD0A46214618B062F387
:1041B0001E01BDE8F08D002230466146FCF7ADF8E7
:1041C00080460E466FF00102FCF7BAFA4FF0553206
:1041D000394BFCF7A5F842463346FCF7A4F8002219
:1041E000364BFCF79DF88246424633460491104612
:1041F0001946FCF798F85246049BFCF794F88A4657
:1042000000904FF0C0422E4B40463146FCF78BF8F1
:104210002C4A2B4B00E027E0CDE9060151460098DF
:10422000FCF781F882460191274A284B40463146E7
:10423000FCF779F85246019BFCF76FF882460B4673
:1042400002460591DDE90601FBF7C6FFDDE906231D
:10425000002688463046FCF760F85246059BFCF77E
:104260005FF8024600F07EB90020B1F5801F07DA42
:10427000352230466146FCF763FA06466FF034009B
:1042800000EB215024E00000FFFF1F00FFFF0F00A4
:104290000000F03F0000F07F0000404301FCFFFF02
:1042A0004A0900000000F0FF0000F0BF0000E041FC
:1042B0000000F043FFFFEF3F5555D53F0000E03FC2
:1042C0004715F73FFE822B6544DF5DF80BAE543E89
:1042D000A0F2FF300190C1F3130040F07F6141F084
:1042E00040510291FE498842D8BF002004DDFD49BB
:1042F0008142C8BF012001DD0D9008E000200D9033
:104300000198401C01900298A0F58010029002993B
:10431000F54878440B910D9900EBC100D0E90023DA
:104320000F9330460A920B99FBF7F7FFCDE9060190
:10433000DDE90A2130460F9BFBF74EFF02460B4694
:104340000020EA49FCF78DF9059102460B460090E2
:10435000DDE90601FBF7E7FF1490E5488A464FF0D8
:10436000000878440299006812904FF0005040EA2B
:1043700061010D980F9B01EB804000F50021099130
:104380000A9A1298FBF7C9FF32460B9BFBF7C8FF4E
:1043900042465346FBF7C7FF064602914046514648
:1043A000099B129AFBF7BFFFDDE90623FBF7B8FF75
:1043B0003246029BFBF7B1FF059B009AFBF7B3FF68
:1043C0000091149A0490534610461946FBF7ABFF30
:1043D00006460246C7480B46029106217844FFF77D
:1043E000CFFBCDE90510029B324610461946FBF77C
:1043F0009AFFDDE90532FBF796FF05910646534625
:1044000040461946149AFBF7E7FE009B049AFBF717
:104410008AFF3246059BFBF7DFFECDE905104246D9
:10442000534610461946FBF77EFF0022B24B02911D
:104430000A90FBF7D1FEDDE90532FBF7CDFE0E4613
:104440004246AD4B4046FBF768FF029B0A9AFBF7DA
:1044500064FFDDE90532FBF763FF424602910A90F3
:10446000334610465146FBF75EFFCDE90601534641
:10447000149A02990A98FBF756FF8A46029033462F
:10448000424600990498FBF74EFF5346029AFBF709
:10449000A3FE82460B4602460591DDE90601FBF7C5
:1044A0009BFEDDE90623002088460646FBF735FF24
:1044B0005246059BFBF734FF824609914FF060425C
:1044C0008E4B30464146FBF72EFF049006918C4AF6
:1044D0008A4B50460999FBF726FF82460291894A8A
:1044E000894B30464146FBF71EFF5246029BFBF7C5
:1044F00073FE864B7B440D9A03EBC203D3E9002382
:10450000FBF76AFE0E9007910198FBF77EFF05917D
:10451000DDE9061382460E9A0498FBF75DFE7C4A9D
:104520007A440D9B02EBC303D3E90023009302926C
:10453000FBF752FE5246059BFBF74EFE00268846CF
:1045400052463046059BFBF7E8FE009B029AFBF7BC
:10455000E4FE069B049AFBF7E0FE079B0E9AFBF72E
:10456000DFFE024600200B46029038462946FBF744
:10457000DAFE824601912B4638461946029AFBF72D
:10458000CCFE32464346FBF7CEFE5246019BFBF77C
:1045900023FE07468A463246434629460298FBF7E1
:1045A000C2FE05460E463A465346FBF715FE594AEB
:1045B0008846914221DBA8EB020353EA000210D1A6
:1045C0002A463346FBF7A9FECDE90401524A534B74
:1045D00038465146FBF700FEDDE90423FCF7C8F836
:1045E00021D20220FFF752FBFFF730FB0A4621469B
:1045F00018B062F31E01BDE8F08D494B28F000426F
:104600009A4210D3474A08EB020353EA00027FF4B0
:10461000C6AD2A463346FBF780FE3A465346FCF7C2
:10462000A7F87FF6BCAD0022019228F000403E4979
:104630003E4A01EB2051824223DA481C4FF480119C
:1046400021FA00F040443A4AC0F30A517A44394B07
:10465000A1F2FF31CB4020EA0303C0F3130040F482
:104660008010C1F11401C84012680190B8F1000F28
:10467000BCBF4042019028463146FBF74EFE05463E
:104680000E462A46334638465146FBF7A5FD4FF005
:1046900000084246284B40460591FBF744FECDE911
:1046A0000601264A264B40460599FBF73CFE009141
:1046B00002902A46334640460599FBF72EFE3A46BD
:1046C0005346FBF72DFE1F4A1F4BFBF72CFE009BAA
:1046D000029AFBF781FD0746884602460B4635E005
:1046E0008E9803007AB60B00920500000000F03FA0
:1046F000CA050000F80400000000084009C7EE3FAA
:10470000FD033ADCF5015B14E02F3EBED003000050
:104710009403000000009040FE822B654715973CF3
:1047200000CC904000346F3F01FCFFFF0000E03FF1
:10473000E0020000FFFF0F00432EE63F396CA80C9B
:10474000615C20BEEF39FAFE422EE63FDDE906014C
:10475000FBF742FDDDE9062305460E46FBF7DDFDCE
:104760003A464346FBF7DCFD0F462A4633460090A7
:1047700010461946FBF7D7FD824602462E4888466A
:104780000B4605217844FFF7FBF952464346FBF7F9
:10479000CAFD2A463346FBF7C3FD80468A463B46A0
:1047A00028463146009AFBF7BEFD3B46009AFBF7D0
:1047B00013FD0691009000224FF080434046514681
:1047C000FBF7ABFD0F460C90424653462846314658
:1047D000FBF7A9FD3B460C9AFBF743FF069B009AAB
:1047E000FBF79BFD2A463346FBF797FD0022134B50
:1047F000FBF796FD054601980E4601EB00510815A2
:10480000002810DC28463146019AFBF799FFFFF794
:1048100093F9042808BFFFF721FA28463146019A88
:10482000FBF78EFF05460B4618B02A465846214630
:10483000BDE8F04DFBF777BD800100000000F03FC0
:104840002DE9F04106460F46FBF7BCFF041E0D465E
:1048500018BF0120284320F00040C0F17F6000F124
:10486000E040C00F0ED0301C18BF0120384320F0AC
:104870000040C0F17F6000F1E040C00F04BF0120A4
:10488000FFF704FA20462946BDE8F0810000000049
:1048900000000000010203040607080900000000F0
:1048A0000102030400000000000000000000F03FCF
:1048B000000000000000F83F0000000000000000C1
:1048C0000000004003B8E23F0000000000000000CC
:1048D00006D0CF43EBFD4C3E033333333333E33F5A
:1048E000FFAB6FDBB66DDB3F4D268F515555D53F86
:1048F00001411DA96074D13F65DBC9934A86CD3F54
:10490000EF4E454A287ECA3F3E5555555555C53F41
:1049100093BDBE166CC166BF2CDE25AF6A56113F33
:10492000F16BD2C541BDBBBED0A4BE726937663E35
:104930000000000000000000746865206E756D6264
:10494000657220697320696C6C6567616C2C706C92
:104950006561736520656E74657220616761696E5B
:104960002843796C696E646572317E43796C696E37
:104970006465723136290D0A2A5F2A00414C4C20A9
:104980004F55543A000000004F55543130204F46E7
:10499000460000004F55543131204F46460000007C
:1049A00054494D31204F4646000000004F555431C8
:1049B000204F4646000000004F55543132204F46EC
:1049C0004600000054494D32204F4646000000008A
:1049D0004F555432204F4646000000004F55543189
:1049E00033204F46460000004F555433204F464673
:1049F000000000004F55543134204F46460000005F
:104A00004F555434204F4646000000004F55543156
:104A100035204F46460000004F555435204F46463E
:104A2000000000004F55543136204F46460000002C
:104A30004F555436204F4646000000004F5554371E
:104A4000204F4646000000004F555438204F464640
:104A5000000000004F555439204F4646000000002A
:104A6000434150204F464600434150205550204F6F
:104A70004646000043594C494E444552204F464655
:104A800000000000434150204C454654204F46460C
:104A900000000000434150205249474854204F46EF
:104AA00046000000414C4C20494E00004F55543107
:104AB00030204F4E000000004F55543131204F4EF2
:104AC0000000000054494D31204F4E004F555431E5
:104AD000204F4E004F55543132204F4E0000000001
:104AE00054494D32204F4E004F555432204F4E0006
:104AF0004F55543133204F4E000000004F55543372
:104B0000204F4E004F55543134204F4E00000000CE
:104B10004F555434204F4E004F55543135204F4E91
:104B2000000000004F555435204F4E004F55543172
:104B300036204F4E000000004F555436204F4E0097
:104B40004F555437204F4E004F555438204F4E008C
:104B50004F555439204F4E00434150204F4E0000D6
:104B6000434150205550204F4E00000043594C49BE
:104B70004E444552204F4E00434150204C45465430
:104B8000204F4E00434150205249474854204F4E39
:104B90000000000048454C500000000052455345BD
:104BA00054000000C44B000800000020F800000082
:104BB0006C3C0008BC4C0008F80000209007000086
:104BC0007C3C00080000000000A24A040000000035
:104BD00000000000000000000000000000000000D5
:104BE00000000000944B00089C4B0008A44A0008F9
:104BF0006C4B0008744A0008A84A0008CC4A000818
:104C0000AC490008E84A0008D0490008FC4A0008FE
:104C1000E8490008104B0008004A0008244B00082F
:104C2000184A0008384B0008304A0008404B00087A
:104C30003C4A0008484B0008484A0008504B00080E
:104C4000544A0008AC4A000888490008B84A0008DD
:104C500094490008D44A0008B8490008F04A0008FE
:104C6000DC490008044B0008F4490008184B000810
:104C70000C4A00082C4B0008244A00087C49000814
:104C8000C44A0008A0490008E04A0008C4490008D6
:104C9000584B0008604A0008844B0008944A0008FA
:104CA000784B0008844A0008604B0008684A0008F6
:0C4CB000000000000000000000000000F8
:04000005080000ED02
:00000001FF
